S00F000046697265666C792E7372656344
S11300000AC01CC01BC01AC019C018C017C016C033
S113001015C014C013C011271FBFCFE5D0E0DEBF49
S1130020CDBF20E0A0E4B0E0E8E3F1E402C0319108
S11300303D93AE34B207D9F77AD07CC0E1CF0A9AA7
S11300400895129A109A43ED50E341505040E9F755
S113005000C000001298109843ED50E34150504006
S1130060E9F700C00000089542A153A14F5F5F4F1C
S113007053A942A9423351071CF4E3DFF5DF089585
S113008013A912A911A910A915A914A9089543ED3A
S113009050E341505040E9F700C000004CA15DA17D
S11300A05BA94AA948A159A157A946A941E04BBB5C
S11300B043E84DBBEE9AEE99FECF49B350E05DA9FB
S11300C04CA960A171A1862F972F8F5F9F4F91A993
S11300D080A98AA19BA1841795072CF441E050E0E4
S11300E059A948A902C019A918A988A199A146A18A
S11300F057A18417950751F044A155A14F5F5F4F55
S113010055A944A94530510741F403C015A914A9C0
S113011004C0655F7F4F71A960A940A151A1443615
S113012051070CF4B4DF0895B2DF9EDF089587DF32
S10B0130FBDFFECFF894FFCFC2
S11101380100010001000100010001000100AE
S9030000FC
